:1000000000000320D101000029250000E1240000A8
:10001000E1240000E1240000E1240000E1240000CC
:10002000E1240000E1240000E12400002925000073
:1000300029250000E1240000313F00003540000088
:100040002925000029250000292500002925000078
:100050002925000029250000292500002925000068
:100060002925000029250000292500002925000058
:100070002925000029250000292500002925000048
:100080002925000029250000292500002925000038
:100090002925000029250000292500002925000028
:1000A000A9220000B5220000292500002925000012
:1000B00029250000292500002925000061460000AF
:1000C000292500008D47000029250000B9480000BF
:1000D00029250000B149000029250000292500003C
:1000E00029250000292500002925000029250000D8
:1000F00029250000292500002925000029250000C8
:1001000029250000292500002925000029250000B7
:10011000292500007D2A000029250000292500004E
:100120002925000029250000292500002925000097
:100130002925000029250000292500002925000087
:10014000E53C000029250000A94A000029250000FF
:100150002925000029250000292500002925000067
:100160002925000029250000C122000029250000C2
:100170002925000029250000292500002925000047
:100180002925000029250000292500002925000037
:100190002925000029250000A14B00002925000089
:1001A0002925000029250000292500002925000017
:1001B0002925000029250000292500002925000007
:1001C00029250000292500002925000029250000F7
:1001D0005C4B4CF2205210B51A804DF628121A8052
:1001E00000BF00BF02F0A4F9574B4FF030621A6015
:1001F000564A9A60564ADA60564B4FF470021A60BB
:10020000554B564A1A60564A136813F4807304D14A
:1002100054490B604FF4A8531360534B1A781107DD
:1002200003D51A7842F008021A70504B5049AA229E
:100230001A70504A504B8B4204D252F8040F43F8C4
:10024000040BF8E74D4B4E4900228B4202D243F893
:10025000042BFAE74B494C4A002352F8230041F89B
:1002600023000133742BF8D1484B494A802103F80D
:10027000011B9342FBD1474B424A1A60464B8A22EC
:100280001A70A3F5805324225A70A0221A709A790A
:100290009207FCD59A79D406FCD4404A937903F0AE
:1002A0000C03082BFAD13E4B60221A7002331A78E5
:1002B000802AFCD1394B01221A715D225A719A7938
:1002C0009006FCD59979354A4906FBD5354B364918
:1002D00019600021596020231370937903F00C03F7
:1002E0000C2BFAD1314B324A1A60324B324A1A6027
:1002F00000225A60072243F8042C304AC3F80C2D20
:1003000062B602F049FA174B1B68DA0705D52C488C
:1003100002F0C4F92B4B2C4A1A602C4B1B785B065D
:1003200009D5284C284B22689A4204D1244802F06F
:10033000B5F90023236005F0E1FA02F0FFF803F0BD
:10034000ABFEFEE70E20054030800440823F0400F3
:100350000100002B88ED00E0002008E0030000858C
:1003600010D0034014D0034002D0074000E0074003
:10037000782AFF1FE09F0000B01DFF1F782AFF1F93
:100380007033FF1F0012FF1F0000000000E400E0B8
:1003900064E400E008ED00E0005006400040064044
:1003A00001E007404480044000000602048004404D
:1003B000C010070014E000E01FBF02000000202072
:1003C000EB6AD85B1CE00340A5C3945A00F00740D9
:1003D000FFFFFFFFFFFFFFFFFFFFFFFFFFFFFFFF2D
:1003E000FFFFFFFFFFFFFFFFFFFFFFFFFFFFFFFF1D
:1003F000FFFFFFFFFFFFFFFFFFFFFFFFFFFFFFFF0D
:10040000FFFFFFFFFFFFFFFFFFFFFFFFDEF9FFFF23
:1004100010B5054C237833B9044B13B10448AFF33E
:1004200000800123237010BD782AFF1F0000000008
:10043000DC9F0000084B10B51BB108490848AFF31A
:1004400000800848036803B910BD074B002BFBD0A0
:10045000BDE81040184700BF000000007C2AFF1FC5
:10046000DC9F0000782AFF1F0000000010B5044642
:1004700003F0F0FB204610BD70B472B6254A264B3F
:10048000264841250E248021157004701A461970E3
:10049000137821491806FBD5214B224A1D78224C9E
:1004A00022481570033B247800781B78D370547071
:1004B000907062B672B61748184C41260F258023FB
:1004C0000670257008460B7003781B06FCD5144C8B
:1004D00015481649164B2478007809781B78D37193
:1004E00014715071917162B6124D0024296823462F
:1004F0000133082B09D0032BFAD9D05C0133082B28
:100500004FF0010400EB0121F5D10CB970BC70472C
:100510002960FBE70700024000000240060002409D
:100520000B000240A02AFF1F0A00024009000240FF
:1005300008000240EC2AFF1F38B5144A1449154D33
:10054000154C1378002BFCD00B789B07F9D02B6847
:1005500020681B1A182BF4D91049114803F08EFD9E
:10056000FFF78AFF0F4B10491A680D4803F086FD0C
:100570000C210E4803F060FA0D4800F0BFF9342159
:100580000B48BDE8384000F055BA00BF2C2FFF1FC4
:10059000442FFF1F282EFF1F6833FF1FD89800002D
:1005A0006C1FFF1FEC2AFF1FEC9800000002FF1FCA
:1005B000942AFF1F2DE9F04182B003F0BFF8012813
:1005C0002DDD284E284D33680193DDF80480274F38
:1005D000002407E033680093009BBA68C8EB03036C
:1005E00093421FD2C4F10201281903F0B5F8044464
:1005F000012C1E49EED91E4C6B7828782060062B02
:100600000DD8DFE803F0242B16121C2004000B2168
:10061000184803F00DF9184B187803F08DF902B063
:10062000BDE8F08101230B73E5E7012102F05CF8DE
:100630002078002102F044F802B0BDE8F0810021EA
:1006400002F052F8EBE7022102F04EF8E7E702F081
:100650003DF80A4B186003F06FF9E0E7012102F062
:100660002FF8DCE7282EFF1FA82AFF1F6C1FFF1F93
:10067000E42AFF1F00990000EC2AFF1FE82AFF1F51
:100680002DE9F0413B4E3C4D3268DFF81081C5F852
:10069000008000236B722B612B72EB600AB964E05F
:1006A0001A465369002BFBD155610027334C344B5C
:1006B00031486F61AF80EF80AF722B6003F076FD41
:1006C000022004F118023B4639462772E760C4F85D
:1006D000008060722261274600E03A6942F82310E8
:1006E000627A264801339A42F7DC3268214B0AB914
:1006F0003DE01A465369002BFBD154610026DFF818
:10070000A080204B1D486661A680E680A6721E4F21
:10071000236000F08FFB404688F80860C8F800505E
:10072000C8F8044088F80960C8F80C6088F81060C0
:1007300003F05CFA154A1649404605F0CDF801234E
:1007400038463B727B72FE603D607C603E7403F015
:100750004DFA0E4A0E49384605F0BEF80D4B0E4ACA
:100760001A600A221A72BDE8F08135609DE71860B0
:10077000C4E700BF482FFF1FCC2AFF1FAC2AFF1F72
:100780006C9C000030990000042BFF1FB01DFF1F60
:100790006D040000942AFF1F14990000D4980000F3
:1007A000F02AFF1F2DE9F04F00F5807EB1E8A00A86
:1007B000B2E84015C5EA0643C6EA2544C7EA08453B
:1007C000C8EA2746C9EA0A47CAEA2948CBEA0C49D7
:1007D000CCEA2B4AA0E8F8078645E7D1BDE8F04F00
:1007E00070474FF000022DE9F00F00F5807C00BF4C
:1007F000B1E8A00AC5EA0203C2EA2544C7EA020535
:10080000C2EA2746C9EA0207C2EA2948CBEA020936
:10081000C2EA2B4AA0E8F8078445E9D1BDE8F00F09
:1008200070474FF000022DE9F00F00F5807C00BF0B
:10083000B1E8A00AC2EA0543C2EA0504C2EA0745D4
:10084000C2EA0706C2EA0947C2EA0908C2EA0B4936
:10085000C2EA0B0AA0E8F8078445E9D1BDE8F00F29
:1008600070472DE9F00F089C00F5007B51F8045B00
:1008700053F8046BC5EA0647C6EA254952F8045BFB
:1008800054F8046BC5EA0648C6EA254AA0E8800782
:100890008345EBD1BDE8F00F704700BF00207047E3
:1008A00000207047F8B5144C037A242908BFC28091
:1008B0005B0001250E462046C1F30721174684F848
:1008C0003B3084F85E5084F85D5001F0F7FAF1B2E5
:1008D000204601F0F3FAC7F30721204601F0EEFAB3
:1008E000F9B2204601F0EAFA2946204601F052FC0E
:1008F000B0FA80F04009F8BD741EFF1F38B501251D
:1009000004460571334801F0EDFA052001F0F2FECE
:10091000204644F260023021FFF7C4FF20466C22DB
:100920002621FFF7BFFF20464FF4F9722821FFF779
:10093000B9FF204640F622722C21FFF7B3FF204674
:1009400044F246423C21FFF7ADFF204640F2371209
:100950002421FFF7A7FF204644F2FF023021FFF7D2
:10096000A1FF732202212046FFF79CFF4FF4C870BD
:1009700001F0C0FE204641F61D522E21FFF792FFE6
:10098000042211462046FFF78DFF20464FF498724F
:100990000621FFF787FF204610220A21FFF782FF7A
:1009A000204600220E21FFF77DFF204643F63C4201
:1009B0001021FFF777FF204647F67F722221FFF7CD
:1009C00071FF204636222421FFF76CFF657228460E
:1009D00038BD00BF741EFF1F10B5044619B10129B0
:1009E00011D0002010BD55222021FFF75BFF002809
:1009F000F7D0E28842F00402204692B22421BDE8FA
:100A00001040FFF74FBF40F273122A21FFF74AFF51
:100A10000028E6D0882220212046FFF743FF002847
:100A2000DFD0E288204622F004022421BDE81040F5
:100A3000FFF738BF38B50546F1B1802903799ABF71
:100A4000C1F1800444EA0424002433B92246284634
:100A50002221BDE83840FFF725BFC288002322F0DD
:100A6000100203712421FFF71DFF22462846222190
:100A7000BDE83840FFF716BF0123037147F67F72C8
:100A80002221FFF70FFFEA8842F01002284692B2B7
:100A90002421BDE83840FFF705BF00BF9FED057A70
:100AA000DFED057AE0EE077AFCEEE77A17EE901AB2
:100AB000FFF7C0BF00000143EE7CFF3E10B50446C7
:100AC00003F0B8F9204610BD024A0349034804F078
:100AD00003BF00BFB01DFF1FBD0A0000182BFF1F82
:100AE00038B5074D074C08482A46214604F0F4FE65
:100AF0002A4621460548BDE8384004F0EDBE00BF57
:100B0000B01DFF1FBD0A0000202BFF1F282BFF1F59
:100B1000024A0349034804F0DFBE00BFB01DFF1FB7
:100B2000BD0A0000302BFF1F024A0349034804F0AE
:100B3000D3BE00BFB01DFF1FBD0A0000382BFF1F32
:100B4000024A0349034804F0C7BE00BFB01DFF1F9F
:100B5000BD0A0000402BFF1F024A0349034804F06E
:100B6000BBBE00BFB01DFF1FBD0A0000482BFF1F0A
:100B7000024A0349034804F0AFBE00BFB01DFF1F87
:100B8000BD0A0000502BFF1F024A0349034804F02E
:100B9000A3BE00BFB01DFF1FBD0A0000582BFF1FE2
:100BA0002DE9F84F344B35481A68354912681B79DE
:100BB0000B70824229D2334B1B784BBBDFF8D4A099
:100BC000DFF8D490DFF8D480DFF8D4B0DAF8006032
:100BD000D9F80070B8F80040BBF80050002E3BD0A8
:100BE0009FB33A1D311D02EB450201EB4401FFF7B3
:100BF000D9FD403540347F2C1BD8A8F800407F2D0C
:100C00000AD8ABF80050BDE8F88FA0F58070D5E7A2
:100C10001D4B01221A60D1E700243846ABF8004092
:100C200002F094FF194B1A68C9F800201C60BDE857
:100C3000F88F00243046A8F8004002F087FF144BDC
:100C40001A68CAF800201C60D9E7311D01EB440185
:100C5000FFF7C7FD4034CEE737B1391D01EB450141
:100C6000FFF7DFFD4035C6E739464FF48072BDE837
:100C7000F84F05F0A5B900BF642BFF1F300FFF1F11
:100C80001F8000407C2BFF1F08E200E0782BFF1F35
:100C9000802BFF1F742BFF1F6C2BFF1F602BFF1F70
:100CA000702BFF1F70B50021044602F093FF80B146
:100CB00072B61C4A1368002B29D01B490D6805B376
:100CC0001A4E156000220860328062B6184602F0A3
:100CD0003DFF2046012102F07DFF88B172B6144A23
:100CE0001368CBB113490C6874B1134D1460002222
:100CF00008602A8062B61846BDE8704002F026BF40
:100D000070BD086062B6E4E7086062B670BD07496E
:100D100010600B8062B6DCE7074910600B8062B69A
:100D200070BD00BF742BFF1F802BFF1F602BFF1FA8
:100D30006C2BFF1F782BFF1F702BFF1F284B29499F
:100D40001A68294842F400421A600A6842F0020216
:100D50000A601A6842F002021A600368002B3EDB48
:100D6000224B1B68002B3ADB214A4FF08043136073
:100D70001368002BFCDBF0B51E4C1F48DFF8A8E021
:100D80001E491F4B1F4A204F204E214D4FF2FE0C93
:100D9000C4F800C0002404600120CEF80000DFF891
:100DA0008CE0C1F800E04FF480311960194B1360FA
:100DB000DFF87CE0184A3A603460286000F18E4029
:100DC000CEF80000154CB9671548164946F8503C56
:100DD0004FF4C0632A61236003600B60F0BD70476D
:100DE0003C8004404080044000F0024080F002401B
:100DF00000F1024004F1024060F0024008F00240BD
:100E00000CF0024010F0024014F00240E0F002400A
:100E100084F002401B1F0100001F1F1F08B0044088
:100E20000CB0044018B0044004F002400100000778
:100E300088F00240F8B5274C274E2046012102F0E9
:100E400093FF264A264B002515601D60FFF776FFAD
:100E5000244B254A25494FF4C060186023680220BE
:100E60001A6098802279196102F1804202F50432F9
:100E700040F20117DF80DE604FF4807106278D2677
:100E8000D9829D82D9839D619F8398601570167069
:100E900002F010FF2279164B1649187053119B006F
:100EA000174603F160430F70134D144E144C02F1BA
:100EB0001000012103F5614302F01F0201FA02F262
:100EC0004FF080770F492F602C6046F820101A6091
:100ED000F8BD00BF642BFF1F00FEFFFF742BFF1F38
:100EE0006C2BFF1F04B00440300EFF1F22F00240A5
:100EF0007C2BFF1F1B80004000F002400012FF1FF0
:100F000001000090A10B0000024A0349034804F0CD
:100F1000E3BC00BFB01DFF1FBD0A0000642BFF1F14
:100F2000024A0349034804F0D7BC00BFB01DFF1FAD
:100F3000BD0A0000842BFF1F024A0349034804F046
:100F4000CBBC00BFB01DFF1FBD0A00008C2BFF1FD4
:100F5000024A0349034804F0BFBC00BFB01DFF1F95
:100F6000BD0A0000942BFF1F024A0349034804F006
:100F7000B3BC00BFB01DFF1FBD0A00009C2BFF1FAC
:100F8000024A0349034804F0A7BC00BFB01DFF1F7D
:100F9000BD0A0000A42BFF1F10B4047F4160022C87
:100FA000C26003D05DF8044B02F060BF83685DF857
:100FB000044B1847F0B4464B464A986B5C6B01797A
:100FC0001170454922790A701A6B00790870002A5D
:100FD00046D05968C9688A423ED82168CC8B24041F
:100FE00002F1FF3065D4C0F30E00C883C88B80B215
:100FF000C882996B0968C88B000452D4C2F30E00F2
:10100000C883C88B002480B212F1FF32C88218BF97
:1010100001221C63596B2E4809680D6800F12C04ED
:10102000A54236D00068C46814F0804F0C680D6883
:1010300015BF248824780235013544F000440D6042
:101040004463996B254B09791970214912B14A6B98
:1010500012791A70F0BC7047521A1A630122D9E74C
:10106000D86B196805681E4C0A63CC62CC682D6881
:101070001C4E24F080440327B542CC6083F82D70C9
:101080001FD1037F4260022BC2601ED0F0BC02F071
:10109000EDBE016890F82C00CC6840F00040486339
:1010A000CFE7CC8BC2F3080004F47E442043C8830E
:1010B000A7E7CC8BC0F3080004F47E442043C88328
:1010C00094E72B461146F0BC18478368F0BC1847DC
:1010D000C41DFF1F1F8000401C8000401B8000407B
:1010E00000000FFF990F000000207047704700BFFD
:1010F000064B074ADA620221002259609A7083F88F
:10110000242083F8302083F832207047AC2BFF1F57
:10111000D09900002149224A0B6843F080030B60FC
:1011200011461368DB07FCD40B689B07F9D41D4BF1
:1011300030B44FF08072194D186000E0A2B12968F8
:10114000194B164C0B40013A002BF7D062B1012B22
:101150000AD1236813F0800F23680FD043F00113E6
:101160002360032030BC70470C4A136843F470239B
:1011700043F001031360012030BC704713F4803347
:1011800005D0236843F0011323600520F4E72268AB
:1011900042F0010218462260EEE700BF30100B401B
:1011A00024100B400C100B4001000E0070B50D4DCB
:1011B0000D480E4E00232B60FFF7ACFF632403465F
:1011C00006E04BB92B60FFF7A5FF013C034605D0B5
:1011D000326805485207F4D4184670BD002808BF8D
:1011E000052070BD08100B400000DB0C24100B40E4
:1011F000F8B5384B1A780AB10320F8BD5B7806467B
:1012000003B94902344D354C354B36484FF6FF771C
:101210004FF481322F6021601A60FFF77BFF0028B6
:10122000EBD1314B31491B681C3406F1400206F505
:1012300010702B68284F43F0200613F4E00F2E6047
:101240003ED123681E05FCD50B6842F8403C0B6874
:1012500042F83C3C0B6842F8383C0B6842F8343C9E
:101260000B6842F8303C0B6842F82C3C0B6842F8A3
:10127000283C0B6842F8243C0B6842F8203C0B6881
:1012800042F81C3C0B6842F8183C0B6842F8143CCE
:101290000B6842F8103C0B6842F80C3C0B6842F8B3
:1012A000083C0B6842F8043C40328242C1D1002025
:1012B00009490B68084A9B07FBD50D4B1360F8BD25
:1012C00043F4E00343F020033B60FFF76FFF01208E
:1012D000EEE700BF002CFF1F30100B4008100B4042
:1012E00004100B4010003A1110100B4020100B405E
:1012F00022000001F8B52B4B1A780AB10320F8BD83
:101300005B78044603B94902274D284E284B2948EB
:101310004FF6FF774FF481322F6031601A60FFF78C
:10132000F9FE0028EBD1244B24491B682E4604F516
:1013300000772B681C4AD806FBD5336813F4E00FFE
:101340001AD104F1400254F8043B0B60A242FAD1D6
:101350002B68DFF854E043F010032B602B6813F484
:10136000E00013D19742E4D10F490B680E4A9B0766
:10137000FBD5134B1360F8BD136843F4E00343F04F
:1013800010031360FFF712FF0120EDE7DEF80030D5
:1013900043F4E00343F01003CEF80030FFF706FFFC
:1013A0000120E1E7002CFF1F30100B4008100B401C
:1013B00004100B4000003A1810100B4020100B4096
:1013C0001200000110B50121007801F079F9114AED
:1013D0001378C3B11049CB7A00241846147093B126
:1013E000DA0703D50D4AC869106018469C0703D573
:1013F0000B4B0A6AC87A1A60420705D4030702D564
:10140000084B8A6A1A6010BD074B4A6AC87A1A608C
:10141000F4E700BF142CFF1FC41DFF1F00E100E014
:1014200004E100E00CE100E008E100E0234B1A7861
:101430001AB10078002101F043B970B4204A214963
:10144000D47A096801251D70002C26D072B6D47A92
:10145000E607234606D51C4DD3682E683340D3617A
:101460002B602346A50706D5184D14692E68D37A3C
:10147000344014622C605C0706D5154D54692E6803
:10148000D37A344054622C601B0705D5114C936904
:1014900025682B409362236062B61368DA688A423B
:1014A00007D00D4C1C600D4AD96041F080441C618E
:1014B0001A600078002170BC01F002B9142CFF1FE3
:1014C000C41DFF1F102CFF1F80E100E084E100E03D
:1014D00088E100E08CE100E001403F0000003F8037
:1014E000F0B41248124A036882B016460093009F77
:1014F0004FF00045FF24136843F480631360D56206
:101500005463D36A002BFCDAB36BDBB2FF2B09D038
:1015100003680193019BDB1B8B42ECD3002002B0DC
:10152000F0BC7047012002B0F0BC7047282EFF1FAE
:1015300000C00240F8B50D464FF4967116460446B9
:10154000FFF7CEFF284B1A684FF0004042F480624C
:1015500045F040011A60D8621A465963D36A002BDD
:10156000FCDA214918204FF000470A6826FA00F3F8
:1015700042F48062DBB20A60CF624B63CB6A002B1D
:10158000FCDA083810F1080FEFD155B3082D0CBF65
:101590008721FF21144B1A684FF0004042F480620B
:1015A0001A60D8621A465963D36A002BFCDA0E4AD5
:1015B000002716464FF00045FF21136843F480636F
:1015C0001360D5625163D36A002BFCDAB36BD8B2D7
:1015D0001B06607000D4F8BD0137B7F5807FECD1F1
:1015E000F8BD9521D6E700BF00C00240F0B4154910
:1015F000154A0B6882B016460093009F4FF00045D5
:10160000FF24136843F480631360D5625463D36A84
:10161000002BFCDAB36BDBB2FF2B43700AD10B68F3
:101620000193019BDB1BB3F5967FEAD9002002B042
:10163000F0BC7047A3F1FE00B0FA80F0400902B0A0
:10164000F0BC7047282EFF1F00C00240F8B5837819
:10165000032B0E46044618BF4E021546FFF7E6FE62
:10166000324611212046FFF765FF18B92046FFF7E3
:10167000BDFF20B92046FFF7A5FE0020F8BD204B96
:101680002049214A1A608E4659631A4659631E46FC
:10169000596305F5FD70A91C05F5FE77D36A13F0B3
:1016A000F00FFBD0C6F834E0B36B01F8013C1B121D
:1016B00001F8023C02318F42F0D105F50075A842D5
:1016C0000DD20F4A1646D36A13F0F00FFBD0B36B5E
:1016D000191200F8021BA84200F8013CF3D3084B92
:1016E0000949084A196019465A63CB6A044A13F03B
:1016F000F00FFAD02046936BFFF764FE0120F8BD8F
:1017000000C00240FFFF009000041F80F0B4314E83
:1017100033684FF0004743F4806333603D46F7621F
:10172000344671633346511C02F20127E26A002AF3
:10173000FCDA1A6811F8016C42F480621A60DD620A
:101740005E63E26A002AFCDA1A6811F8026B42F45E
:1017500080628F421A60DD625E63E7D11D49CA6A0A
:101760001C4B002AFBDA1A684FF0004542F48062F5
:10177000FF241A601946DD625C63CB6A154A002BB0
:10178000FBDA13684FF0004543F48063FF241360D5
:101790001146D5625463CB6A0E4A002BFBDA1368FC
:1017A0004FF0004543F48063FF2413601146D56277
:1017B0005463CB6A074A002BFBDA936BDBB203F06E
:1017C0001F024370A2F10500B0FA80F04009F0BC9E
:1017D000704700BF00C0024070B5044671B1837805
:1017E000032B0D4618BF4D021646FFF71FFE2A4673
:1017F00018212046FFF79EFE054620B12046FFF740
:10180000E1FD002070BD3246FE212046FFF77EFF3D
:101810000028F3D04FF416712046FFF761FE002830
:10182000ECD02A460D212046FFF784FE0028E5D1A2
:101830000B4B1A684FF0004542F48062FF201A609B
:101840001946DD625863CB6A054A002BFBDA936BBD
:1018500013F0FF0FD2D12046FFF7B4FD012070BD79
:1018600000C00240014B024A1A607047102CFF1F53
:101870000320003838B590F90530002B03DBBDE8B4
:10188000384000F079B904460121006900F0B4F94C
:10189000F8B1257D104B13EB45151AD0A3790F4AEB
:1018A000012B9CBFA369EB61E36912686B831B0C7E
:1018B000AB8232B105F1160105F1180090472B8B70
:1018C0006B82637903F07F036371BDE8384000F0F9
:1018D00053B9002038BD00BF242CFF1F182CFF1F58
:1018E00010B500F1080204460121006A00F02CFA4C
:1018F00050B1E3693BB96379A268E26163F07F03A9
:101900006371012010BD012010BD00BFF8B58379BF
:1019100013B182698A4201D20020F8BD022B0F4622
:1019200005461AD007B32B6AE9681C7C4A1E04F1ED
:1019300009037C1EDA40DC40A24211D9EB69AB609E
:1019400005F1080606E0A968286A00F0C5F9013C1F
:101950000028E1D03246002CF5D1EF600120F8BD1F
:101960000029EBD0A41AEBE7AF60EF600120F8BDCF
:101970002DE9F04F8B46817985B001290746019208
:1019800005D001233B71002005B0BDE8F08F4279FE
:101990009107F6D5530708D5FC68B9698C4200F069
:1019A000B480FFF7B3FF0028EBD0019BFC68002B4D
:1019B0004AD0DFF8A491DFF8A4A1DDF80480386AEA
:1019C0000679013E06EA542616F0FF06C4F3080421
:1019D00043D1002C41D1B968002973D1FA69002A9A
:1019E00000F08380BA60C4F50075ADB245453AD9C0
:1019F000057C4169023AAA400E4416441FFA88F554
:101A00001CB9F868BA6990424FD23046012100F003
:101A1000F3F80028B5D04C4404EB050E74450DD006
:101A20000BF1FF31621E0EF1FF3611F8010F02F8C3
:101A3000010F9642F9D1C4EB0E04A344FC68B8EB45
:101A400005082C44FC60BAD1BB69A34262D27A7902
:101A5000BC6142F080027A7165E0C4F50075ADB2F8
:101A60004545BA68C4D8017C4069023A8A400644B8
:101A7000B5F5007F1644C3D1DAF80020964204BFC2
:101A80004FF0FF32CAF800202F4A10680278FE2A71
:101A9000314633D05A46FFF79FFE00283FF471AF1E
:101AA0000BF5007B4FF40075C8E700F065F80028DF
:101AB0003FF467AF2549CAF800600A7842F0010296
:101AC0000A70A8E703AA00F007F900283FF45CAF0A
:101AD000386A1F4B90F82050039A4FF6F871102D7A
:101AE00018BF19468A42FFF47DAF3846FFF7F8FE6B
:101AF00000283FF446AF386ABA6874E75846FFF7E3
:101B0000F9FBB0FA80F04009C7E7019B002B7FF496
:101B100050AF08E00F4B7A791B6823B1019B13B1DA
:101B200042F080027A71120709D5BB79002B3FF48D
:101B300028AF3846FFF79EFE00283FF422AF0198F9
:101B400005B0BDE8F08F00BF202CFF1F242EFF1F23
:101B5000F8FFFF0F182CFF1F242CFF1F041EFF1F70
:101B600000B583B002AB012203F8011D1946FFF74F
:101B7000FFFE03B05DF804FB70B51A4C23780BB977
:101B8000012070BD184D194B286819680378FE2B89
:101B900017D0174AFFF720FE88B1164E316819B9E1
:101BA00000232370012070BD28680378FE2B0FD01E
:101BB0000F4AFFF711FE10B100233360F0E7002059
:101BC00070BD0B48FFF796FBB0FA80F04009E3E7E1
:101BD0000748FFF78FFBB0FA80F040090028EBD1EF
:101BE000EDE700BF242EFF1F202CFF1F041EFF1F48
:101BF000242CFF1F1C2CFF1F70B5124D2B68834235
:101C00000E4611D00446FFF7B7FF08B9002070BD9B
:101C10000D4B18680378FE2B0CD00C4A2146FFF7B9
:101C200015FD0028F2D02C60094B1978314319704A
:101C3000012070BD21460548FFF7DAFAB0FA80F0BE
:101C40004009EEE7041EFF1F202CFF1F242CFF1F5E
:101C5000242EFF1FF8B590F82030C469102B1A4BC2
:101C600005460E4617461B6816D004EBD1149C425D
:101C700016D106F07F06154A42F826701449287ED0
:101C80000A78012842F001020A7018D9A968114A9D
:101C90000B4413600120F8BD04EB11249C4208D0D2
:101CA00000212046FFF7A8FF50B195F82030102BF7
:101CB00007D1F6B2054A234622F81670DEE7012066
:101CC000F8BD2346D5E700BF041EFF1F242CFF1FCD
:101CD000242EFF1F1C2CFF1FC36801338B4218D317
:101CE00070B590F82030102B154B044616460D4663
:101CF000C0691B680FD000EBD11098420FD105F0DE
:101D00007F01104B53F8213023F0704333600120E2
:101D100070BD0020704700EB1120984207D00021D1
:101D2000FFF76AFF50B194F82030102BE7D1E9B2E9
:101D3000044B33F811303360012070BD002070BDBA
:101D4000041EFF1F242CFF1F2DE9F04F176883B0DE
:101D50006FB301374FF0000AC36803F1010813B3F2
:101D60008B46064691463C46002505E01C461F462C
:101D7000F3680135AB4216D9A04538BF022421468D
:101D800001AA304638BF2746FFF7A6FF631CD91BC0
:101D900048B1019A002AE9D18B4510D01C46F3685E
:101DA0000135AB42E8D8002003B0BDE8F08FA1F1C7
:101DB000010ABAFA8AFA07684FEA5A1ACCE7012CE4
:101DC000F1D9F36801339C42EDD86FF0704221469F
:101DD0003046FFF73FFF0028E5D0A74214D2013C70
:101DE000012CE0D9F36801339C42DCD8621C214607
:101DF0003046FFF72FFF0028D5D0A74204F1FF346B
:101E000002D0012CEED1CEE7D9F8001059B101294A
:101E1000C9D9F36801339942C5D83A463046FFF72D
:101E200019FF0028BFD0C9F80070BAF1000F01D027
:101E3000013737600120B7E790F8392090F8380073
:101E4000101A704790F8383090F839209A4205D926
:101E50005A1C034480F83820187E70474FF0FF303A
:101E6000704700BF90F8383090F839209A4286BF0A
:101E70001B18187E4FF0FF30704700BF704700BF3F
:101E800038B50546B0F85E0090B195F85D3014465F
:101E9000C3F1210294420CD805F13B0018442246BC
:101EA00000F014FA95F85D30234485F85D30204643
:101EB00038BD012014462871EEE700BFB0F85E304F
:101EC0006BB190F85D30202B07D8C218013380F831
:101ED0005D30012082F83B10704701230371002020
:101EE000704700BF0023426980F8383080F83930ED
:101EF00080F85C3080F85D3080F85E3080F85F30CC
:101F000006CA30B40D68046943662A4383660A60D2
:101F1000A370426990F861301649146813441D7A21
:101F20005B7B01EBC5051B026D6803F4E06343F0C6
:101F300064032B6090F8623013449D7CDB7D01EBE1
:101F4000C5011B02496803F4E06343F064030B60BE
:101F500021685368194205D003692C225A7003691D
:101F600004229A71036920225A71036980229A70AF
:101F700030BC7047649A000038B50269D478E4B286
:101F8000E106054624D51023D37063061FD504F05F
:101F9000040404F0FF03002C5AD042496A6E002367
:101FA0000B7085F85D30002A66D0904795F85D305B
:101FB000002B61D02B69D0229A702B6995F83B20B9
:101FC0001A712B69012285F85C200222DA7038BD73
:101FD00004F0400303F0FF00002BD8D19379DBB26B
:101FE00003F0600160294ED0937803F0100303F0F2
:101FF000FF01B3B114F0010437D195F85C3095F8C6
:102000005D1099424BD9591C2B4485F85C1093F80C
:102010003B3013712B69D0229A702B690222DA703F
:10202000D5E785F86010937943F0200393712B690D
:1020300095F839101A791F29D2B2C6D819480078F4
:102040000028C2D06818013185F839100276BCE743
:102050002A6985F83930C02393702B69114A1979A0
:10206000012111700222DA70B1E7C02393702B694D
:102070001A790222DA70AAE70122002385F85D208E
:1020800085F83B3096E703F0DF039371AB6E23B125
:1020900085F8380095F8390098472A69A4E7147143
:1020A000B8E700BF252EFF1F2DE9F047374FDFF8B7
:1020B000E0903B68026982B006460093DDF800803C
:1020C00000214FF49675D3789B065BD53B6801934E
:1020D000019BC8EB03030F2BF5D949B1102BF2D0AC
:1020E00000209070336980229A7002B0BDE8F087BA
:1020F000726996F8613013440521187A00F0F4FAF9
:10210000726996F861301344012193F812A0504689
:1021100000F0EAFA09240021504600F0D1FA2B46DB
:10212000013BFDD10121504600F0CAFA2B46013B8C
:10213000FDD1013CEFD1706996F8611001444FF474
:1021400016720C7A4B7B09EBC4011B02496803F43D
:10215000E06343F064030B6096F862300344997CBB
:10216000DB7D09EBC1011B02496803F4E06343F026
:1021700064030B60013AFDD13269D3789B064FF0BE
:102180000101A3D4012002B0BDE8F087282EFF1F73
:10219000649A0000F0B503691222DA70026993783C
:1021A00003F0200385B004460D46002B5ED0B42317
:1021B00093703C4922690B680093009E05E00B6810
:1021C0000193019B9B1B042B42D8D37803F020037F
:1021D00003F0FF00002BF2D094F85D30002B31D0DB
:1021E0004FF0000E4FF0020C04EB0E0393F83B305F
:1021F00013710B680393039F206907E09B060DD5BD
:102200000B680293029BDB1B052B28D8C378DBB23B
:1022100003F0020202F0FF06002AEFD080F803C0AC
:102220002669F378DBB2DF0632462DD49F062BD524
:10223000DB0731D40EF1010E94F85D305FFA8EFEAB
:102240007345D1D800201DBB002384F85E3004E024
:102250009070236980229A70042005B0F0BD8670CA
:102260002369802204209A7005B0F0BD03F0FF06B8
:10227000FFF71AFF10B9042005B0F0BD236984F8F8
:102280005F60B0229A7094E78023B3700420DAE78D
:1022900026698023B370D7E7BEF1000F0CBF022080
:1022A0000320F6E7282EFF1F0148FFF765BE00BF99
:1022B000741EFF1F0148FFF75FBE00BFE01EFF1F37
:1022C0000148FFF759BE00BF081EFF1F844641EAC0
:1022D000000313F003036DD1403A41D351F8043B9E
:1022E00040F8043B51F8043B40F8043B51F8043BF0
:1022F00040F8043B51F8043B40F8043B51F8043BE0
:1023000040F8043B51F8043B40F8043B51F8043BCF
:1023100040F8043B51F8043B40F8043B51F8043BBF
:1023200040F8043B51F8043B40F8043B51F8043BAF
:1023300040F8043B51F8043B40F8043B51F8043B9F
:1023400040F8043B51F8043B40F8043B51F8043B8F
:1023500040F8043B51F8043B40F8043B403ABDD2FE
:10236000303211D351F8043B40F8043B51F8043BA0
:1023700040F8043B51F8043B40F8043B51F8043B5F
:1023800040F8043B103AEDD20C3205D351F8043B2F
:1023900040F8043B043AF9D2043208D0D2071CBFFB
:1023A00011F8013B00F8013B01D30B880380604624
:1023B000704700BF082A13D38B078DD010F003039A
:1023C0008AD0C3F10403D21ADB071CBF11F8013B0A
:1023D00000F8013B80D331F8023B20F8023B7BE759
:1023E000043AD9D3013A11F8013B00F8013BF9D284
:1023F0000B7803704B7843708B788370604670471E
:1024000030B42948294A2A4B2A4D6024E12104701E
:1024100011701B78284C082B30D00A2B27482849EC
:1024200037D00C2B0CBF35225D2212232A6023608B
:1024300002600B60234B24491B78244ABBB1012363
:102440000B601360224B23491B78234A012B26D9AA
:10245000042B0FD9082B1ED9102B94BF862387235A
:102460000B6013601D4B01221A7030BC70470B606B
:102470001360E7E784230B601360F3E700F58E2019
:102480000F490830212213232A60236002600B6069
:10249000D0E73922F7E785230B601360E2E780235A
:1024A0000B601360DEE700BF0040074001400740BB
:1024B0004C1FFF1F08B003400CB0034008B00B4096
:1024C0000CB00B40272EFF1F20B0034020B00B4064
:1024D0004D1FFF1F24B0034024B00B40262EFF1FCA
:1024E00008B5104C08E0236859050DD423681A0577
:1024F0000FD42368DB0411D423685803F3D500F00C
:10250000BDFA23685905F1D502F0AAF823681A0527
:10251000EFD502F03BF92368DB04EDD502F0CCF9EE
:10252000EAE700BF3480044008B5FFF7D9FF00BFD9
:10253000014B10221A80704700200540704700BFF1
:10254000094908B50B6830B16A461844A2F5005233
:10255000904202D20860184608BD03F0C9F90C2366
:1025600003604FF0FF3008BD501FFF1FFEE700BFA4
:10257000084A1378802B01D0002070470649074B8A
:1025800007480860002119701378802BFCD00120C7
:10259000704700BF03E007404480044001E007406B
:1025A00000002822094A1378012B01D0002070472F
:1025B00003F1804303F5FC23602119701378802B0D
:1025C000FCD1034B034A1A600120704703E0074027
:1025D000448004400000060210B4114B53F8302030
:1025E00092F8804234B1012379B182F880305DF8ED
:1025F000044B704703EBC0035B681A6851B922F0C3
:1026000002021A605DF8044B704782F800315DF8F1
:10261000044B704742F003021A605DF8044B7047A8
:10262000649A00001C4A02EBC00301295B6811D0C8
:1026300004291BD052F83000002280F8802229B1F2
:10264000022920D0032922D01A6070474FF48072EB
:102650001A60704752F830004FF4A27280F880126E
:102660001A601A6822F020021A60704752F830107F
:102670004FF4A272012081F880021A601A6842F0B9
:1026800020021A60704740F203121A6070474FF43C
:1026900081721A60704700BF649A000030B4054B25
:1026A000054D064C002210211A602A602060196036
:1026B00030BC704714D0034004D0034000D0034026
:1026C0003F2801D8FFF788BF704700BF3F2806D8D2
:1026D000044B53F8303093F80002C0B2704700202A
:1026E000704700BF649A00003F2801D8FFF79ABFE7
:1026F000704700BF2DE9F843054672B6224F234BC1
:10270000234A1B683C68126862B6520102D5322B1C
:1027100088BF0134B5B3C3F52F3303F21F331D4E09
:10272000DFF86890DFF868809B084FF47A72A6FBA8
:10273000031302FB04F404EB930472B6D9F80010FF
:102740003A68D8F800E062B6C1F52F3303F21F33C0
:102750009B08A6FB03031EF0806FC4EB93034FF4AA
:102760007A7002D0322988BF013200FB0233B3F500
:102770007A7F04D3013D05D004F57A74DDE701F0DA
:10278000D7FEDAE7BDE8F883282EFF1F18E000E047
:1027900004ED00E0176CC116F8B54E4B4E48DFF85B
:1027A0005CC14E4C4E49DFF858E14E4E4E4D4F4FF6
:1027B0004FF000621A604FF080521A604FF00052E2
:1027C0001A604FF080421A604FF000421A600022F7
:1027D000026028234EF6FF70CCF80000CEF80030DF
:1027E00023600EF5012E0B6033602B6006F500268A
:1027F0003B6005F50025A36207F500278B6204F511
:10280000012401F5012106F6E87605F6E87507F5DD
:102810007F6710310EF1100E203433602B60CEF83C
:1028200000303B600B602360314CBB618B61092140
:102830002160A7F5002704F58054203F08343A6052
:102840002060BB60E36047F8041C04F5FD2407F535
:10285000FE27043704F2FC7422603860A360FB603A
:1028600044F8041C083404F6FC74C7F8FC2F2060FC
:10287000A4F5E124A4F2DC7433602B60C7F8F81FE0
:1028800021681C4841F40071216001681A4C0EF562
:102890007F4E0EF1E80E07F5883706F5803605F510
:1028A000803541F000710160CEF8002047F6FF71DD
:1028B0000822396033602B602260FFF7A1FD3220CF
:1028C000FFF718FF00F050FE4FF4AF70BDE8F8407E
:1028D000FFF710BF04E100E00480034014800340D0
:1028E0001C800340248003402C800340348003403C
:1028F000008003400480044000900C4008800340A6
:102900000C800340431E052B14D872B60A4951F8B7
:10291000230068B170B4094C058834F81320466868
:1029200041F82360521B24F8132062B670BC704734
:1029300062B67047002070478C2EFF1F5433FF1F74
:10294000013805280BD872B6074B53F8203043B135
:1029500000205B680130002BFBD162B6704700207D
:1029600070471846F9E700BFE82EFF1FF0B586460E
:1029700072B6022201231B491B4F02E001310133D1
:102980000132052BFBD00D7817489C002D0744F031
:10299000010605D557F834506DB157F83640C4B12B
:1029A000072AEBD162B6114B00221A707046BDE8BF
:1029B000F04000F061BE0D490D4D0A7840F83450EA
:1029C00000EB43130EF10800013A58600A7062B63A
:1029D000F0BD0649074B40F836300A7800EBC603D5
:1029E000F0E700BF989C00000000FF1F212FFF1F91
:1029F00088004000C8004000431E052B1DD81B4A1C
:102A0000400140F0100030B4104472B6184CE25C43
:102A1000032A1BD8DFE802F00212151703220D88E3
:102A2000E25410F0080F14BFC823882343EA05437B
:102A300008310360416062B630BC70470830022242
:102A4000EDE70522EBE708300422E8E7094A52F8EF
:102A5000230038B1084A52F82300416042F823109D
:102A600062B6E9E742F82310034AF7E70000FF1FC8
:102A7000302FFF1FE82EFF1F002FFF1F2DE9F04F03
:102A8000DFF840A3DFF840B389B049E0DFF83C83CA
:102A90004FEA930908EBC907013C7A68E4B2032CBA
:102AA000A2F1080000F02081042C00F03C81052CEC
:102AB00000F051811E0700F1388158F839301B0CA5
:102AC00099B222F8081C002B00F02481A94D55F87A
:102AD0002460002322F8063C42F8043C002E00F05B
:102AE0001B82A54E56F824305860A44D46F82400A9
:102AF00035F81430194425F8141000F09DFD002815
:102B000000F003829E4A9F4B17F0080F00F1080067
:102B100018BF1346786048F8393008238AF8003027
:102B20009AF80040E4B263071AD5974B1B78A3B11B
:102B300096490A7802F0FF0322B1013BDBB20B7029
:102B400003B900BE92490A7802F0FF032AB1013BA3
:102B5000DBB20B70002B00F0AE8104238AF800304A
:102B600004F0080303F0FF02002B00F040819BF803
:102B70000030DBB21C0989D19D08DFF8509259F86A
:102B8000352009EBC501C2F38302013A49680C2ADA
:102B90007ED8DFE802F081817D7D7D7D7D7D4B7D6E
:102BA0007D7D07000A687B4B49687548DFF8208205
:102BB000794C596091B249F835001A600120002221
:102BC000B1F5086FC8F80020C9F81020C9F818201E
:102BD0000792207000F0468340F22A8142F22135AC
:102BE000A94200F0F88200F2458240F6013291429B
:102BF00000F0C98200F29E82B1F5106F00F055839B
:102C000040F68122914240F0FF81624B07909A8802
:102C1000032A00F02B84042A40F0F6815F4A6049C1
:102C20005C4B1278DF880A7001203FE2DFF8A08158
:102C3000D8F8001031B35B4B574C5B4A18882578A5
:102C400016784028074646F0020C28BF4027002D82
:102C500085F001052570A0EB07000CBF8824C8246F
:102C600009EBCC0580B286F0010644EA07446960AE
:102C7000188049F83C4039441670002800F00E8155
:102C8000C8F80010434B1A88B2F5A06F00F00A8113
:102C9000464A0123137040E73E4A108842F221025F
:102CA000904200F04D813B4801F00AFCA8B13E4A39
:102CB000394C1178207881F00106002841F002019A
:102CC00016700CBF8822C82249F8312009EBC101D7
:102CD00080F00100002220704A60294A49F835201E
:102CE000324A0123137018E719077FF5E6AE01F0A9
:102CF00039FB00283FF411AF87F0080700042C4B84
:102D00002C4A7B6040F080003860D37883F0010368
:102D1000D37002E71A4A1B4B17F0080F18BF13466F
:102D200048F83930F9E61B0777D500F0A5FC224AB0
:102D3000204D52F82430002B00F0F2805968285DB5
:102D400042F8241003F108027A60032844D8DFE82F
:102D500000F0A2419F9C1D077FF5AFAE87F00807EA
:102D6000164A7A60164B134A3B60537983F001038D
:102D70005371D2E68C2EFF1F302EFF1F5433FF1FDE
:102D8000C8004000880040002C2FFF1FA52EFF1F09
:102D9000362FFF1F182FFF1FA42EFF1FF72FFF1F17
:102DA000242FFF1F482EFF1F202FFF1F94200740B6
:102DB0008814FF1F302FFF1FE82EFF1FD013FF1FA7
:102DC0008000030080200740902007400000FF1F84
:102DD0002C2EFF1F02222A551A8817F0080F0CBF4D
:102DE0008823C82343EA024348F8393095E6E007D0
:102DF00064D4210600F1C980A20706D5874A884914
:102E000013780220DBB213700870E30602D5844BFE
:102E100010221A7009B0BDE8F08F58F83900000C84
:102E200001F0EEF97F4A804B7A6048F8393074E659
:102E300040F20230814200F01D8200F2B080B1F514
:102E4000817F00F0FC8100F2D780802900F025828C
:102E5000822940F0D980754B998801F07F010629BD
:102E600000F2D2807248734D704B2A70890008447A
:102E70006A700278DF886F49900748BF01224FF0DF
:102E8000020048BF2A70079010E104222A55A3E7E8
:102E900005222A55A0E703222A559DE7402F18BF97
:102EA0000021EDE600219A785970634B1A70634A4D
:102EB0000123137031E600F09BFD4EE6604B5F4846
:102EC00060491A614FF0020E80F800E0584F0A7016
:102ED0005D4919609960514E514D574C9A610D21D1
:102EE0003970FF213170DFF888E129702270574D69
:102EF000574A8EF800109F27012406F8047C5D6075
:102F00000470DA6009B0BDE8F08F524A48F8390021
:102F100013780133137000E645F824004E4EE4E5C3
:102F20002B5D032B00F2288101A252F823F000BF91
:102F30001B2B00001B2B0000EB2F0000E52F0000D7
:102F4000464ACE1D11F8013B02F8013FB142F9D1CA
:102F5000434A1268862A4BD03A4A424C107821786C
:102F600080F0010E002940F0020082F800E00CBF62
:102F70008822C82249F8302009EBC00081F00107FF
:102F800000223146277042608DE62949244B802279
:102F90000D2008701A70A2077FF537AF2EE7B1F544
:102FA000A06F00F0188140F25682A1F5D06101298E
:102FB0002AD82D4A516839B31C4B5D889E8802E09F
:102FC0000C32516801B31388AB42F9D15388B34234
:102FD000F6D12D0A032D00F08182144B1089079041
:102FE000DF8863E001232B5597E500232B5594E5FB
:102FF0001E4A0F211170AFE740F22113994206D00B
:1030000040F22123994202D0094A0F2313700B4A40
:1030100001231370094A012313707EE588200740BD
:1030200080200740D413FF1F8000B400182FFF1F1B
:10303000C0200740242FFF1F9820074094200740FE
:103040000000FF1F202FFF1F880040004C2EFF1F95
:10305000A82EFF1F212FFF1F302EFF1F5F33FF1FE2
:103060006033FF1FA42EFF1FA09C0000A52EFF1F92
:103070008C20074048F2A120814200F0D38000F26A
:10308000C88048F2A110814200F0CC8048F2A21022
:103090008142B9D1AB4BDF88022FB5D9AA49442070
:1030A0008A700870AC2203204A700790874280F033
:1030B000948094F800E00797402F3E4628BF4026B2
:1030C0008EF001038A190193B81B330402929F4AC0
:1030D0009DF8045025701578BEF1000F45F0020CE4
:1030E0000CBF8827C8271F4309EBCC0349F83C7065
:1030F00085F00107596017709549002850D0402885
:1031000051D9944B029E47F0020703EBC7035E6060
:10311000019B002B6FD015708E4A8F4C42F83740C0
:10312000334681F800E0403840338C4AC8F800301C
:1031300010806CE742F2210291423FF468AF42F204
:10314000212291427FF460AF854D7E4B8548864AAF
:103150002D689978056011707C4A157845F0020158
:1031600085F0010709EBC1001770C825002249F856
:103170003150426022704AE717F0080F0CBF02235B
:1031800003232B55C9E46F4B9A88032A00F07481FE
:10319000042A7FF439AF6B4B744A59881170DBE70E
:1031A000402E7FF434AF47F0020709EBC703029EBD
:1031B0005E60019B6749060443BB46F08806029B9C
:1031C00084F800E040281570034441F837607FF42C
:1031D0001EAF0020A9E700200146402894F800E037
:1031E000064628BF40268EF001038A190193801BF2
:1031F000330402926BE71570029B564A5C4C81F8CF
:1032000000E04038403342F837408EE746F0C806C9
:10321000D5E748F2A132914204D048F2A14291424E
:103220007FF4F2AE474D4849284607AA01F014F949
:1032300000283FF4E9AEEF880798434936E7414B51
:103240009A8802F07F02062A3FF6DEAE59880029EE
:103250007FF4DAAE4749920011440A7822F0020264
:103260000A7079E7444B38491A78364B0790DF8863
:103270000A701BE7334B9A8802F07F02062A3FF65A
:10328000C3AE598800297FF4BFAE3A499200114479
:103290000A7842F002020A705EE72B49294B0A7055
:1032A0000220DF884A70079000E7264B294D9A7864
:1032B000314B05F1C0061A7002E00835AE4207D066
:1032C0002B6A1F06F9D5686A083800F0D5F9F4E7CB
:1032D0002A4D2B4A2B492C482C4E019500232C4D6E
:1032E0000295CDF81080059403960D4680461C4645
:1032F0001646306828B1476800F0BEF93846002FFE
:10330000F9D100233360039B28681A46002342F852
:10331000243028B1476800F0AFF93846002FF9D1C2
:10332000019B00221B782A6048F8042B029A4FF078
:103330000001023B22F81410032B2FD8DFE803F022
:103340007F2A7F2A182FFF1F242FFF1F202FFF1FE8
:10335000A42EFF1F0000FF1FC8004000482EFF1FC3
:10336000282EFF1F6833FF1F442FFF1FF72FFF1F5B
:1033700088004000C02007402C2FFF1F302FFF1F68
:103380008C2EFF1FE82EFF1F002FFF1F302EFF1F68
:103390005433FF1F019B4FF001021A70019B01344F
:1033A0000133062C06F1040605F104050193A0D1B2
:1033B0005C4B5D4FDDF81080059CCDF8048019460C
:1033C0005A4B029400221A7002233C46012688467A
:1033D0001F4611E0B50045F0020045F0030500214D
:1033E000062E49F8301049F83510514D00F08B8009
:1033F000072F29D00136013714F8011B08F8041BE8
:10340000052E70D00D07E5D500F016F900285DD027
:10341000B50009EB4611474B49F835300830486094
:1034200000F00AF9002848D045F0010109EBC10E6F
:103430000830414B49F83130CEF80400CBE7019B0E
:103440004FF000021A70A9E73C4BDDF80480029CA3
:10345000DF8807982AE640F2213399423FF4D7AD3E
:1034600040F2214399423FF4D2ADCDE5344A35498B
:103470001278DF880A7019E69A7831490A70002AB2
:103480003FF46AAE304D314AEF78A2F10806002FC2
:1034900018BF1646326812F080017FF45DAEDFF887
:1034A000C480B022404602F08BFD87F00107284A15
:1034B000C6F80480EF7032604EE61C4B197845F078
:1034C000010E013149F83E00197084E7174B197855
:1034D000B500013149F835001970A1E7174B08789C
:1034E000DF880790E2E51B491B48C9F8A410C9F81A
:1034F000AC100021C9F8A000C9F8A800C9F8B010A4
:10350000C9F8B81076E7024605EBC0060B4F134822
:10351000134B45F83200DDF80480029CFF8873608D
:103520000798C3E5C4200740989C0000212FFF1F87
:103530000000FF1F88004000C8004000182FFF1F38
:10354000F62FFF1F242FFF1F302FFF1F9800FF1F94
:103550008000B000D413FF1F8000B400800003007F
:10356000D013FF1F8814FF1F2DE9F041274C01F0F5
:1035700089FB002204F1C80023461A605A60083310
:1035800083424FF00001F8D12148224A0368DFF856
:103590009CE0214E214D224FDFF894C0DFF894804B
:1035A00043F480230360136843F0407313600323E4
:1035B0008EF80030A023337002F5C922C4F307232C
:1035C00000F528302B708030C4F3074310323B7075
:1035D000240EFF230470134D8CF80030124888F835
:1035E00000301370012306F8AC3C4FF400140EF8C1
:1035F000441C7026102107F82C3C2E70046082F8C1
:10360000F810AEF1440EBDE8F08100BF0000FF1FCE
:103610003480044000D80040402107409C200740EF
:10362000B020074035E400E004E100E04421074019
:10363000802007408820074072B60D480268B2FA21
:1036400082F31D2B10DC4FF00041D94022EA010229
:10365000026062B6074803EBC303DB00C218002117
:10366000C15010465160704762B60020704700BFDD
:10367000541FFF1F3C15FF1F0D4B0E4AC31AA2FB20
:1036800003231B091D2B0CD80B4A127852B972B6B2
:103690000A484FF00041026821FA03F31A4302601E
:1036A00062B67047064A1278002AF0D0FFF75EB97A
:1036B0003C15FF1F398EE338212FFF1F541FFF1FBA
:1036C0002C2FFF1F38B50F4D286878B1438802882A
:1036D000C118013393420C7A02D24380204638BD90
:1036E000FFF7CAFF002320462B6038BD064B1B782E
:1036F0002BB10220FFF706F928600028E6D14FF031
:10370000FF3038BD402FFF1F2C2FFF1F10B5094C75
:10371000206818B143881844007A10BD064B1B7806
:103720002BB10220FFF7EEF820600028F2D14FF015
:10373000FF3010BD402FFF1F2C2FFF1F044B054AE9
:103740001B6850881BB11A885B88D31A18447047CD
:10375000402FFF1F5433FF1F2DE9F84F0E4600295D
:1037600042D0DFF890A09AF8003003F0FF091BB3B5
:103770004FF000091E4F8046CB463C6824B3258895
:103780006388ED1AB54228BF354604F10801194493
:103790002A464046FEF79AFD638822882B449BB256
:1037A0009A42A944A6EB0506A844638016D91EB127
:1037B0009AF80030002BE0D14846BDE8F88F058824
:1037C000002DDDD1FFF758FF0220FFF79BF80446DC
:1037D00038600028F3D14846BDE8F88F2046FFF74F
:1037E0004BFFC7F800B0E2E70846BDE8F88F00BF1E
:1037F000402FFF1F2C2FFF1F0B4B1B789BB110B5C9
:103800000A4C206848B1FFF737FF002302202360ED
:10381000FFF778F830B1FFF72FFF0220FFF772F8BB
:103820000028F8D110BD70472C2FFF1F402FFF1F1D
:103830002DE9F04FDFF8F89083B0012289F80020DD
:10384000019169B3DFF8EC80354F019E8346D8F8CB
:103850000000B0B3334D4488C4F14001B14228BFE9
:10386000314604EB010E00221FFA8EFE2A70761AF2
:10387000A0F802E000F1080251B1013C2244594491
:103880001BF8014B02F8014F8B45F9D1B0F802E06B
:10389000BEF13F0F0BD8244A05211170002ED6D15E
:1038A0000198002389F8003003B0BDE8F08F402272
:1038B000028001460320FFF79FF80022C8F800208D
:1038C000E9E73A7822B3194C164D4FF0010A07E0A8
:1038D000013C16D02A78A2B900F02AFE3A78BAB193
:1038E0000320FFF72DF80728F2D889F800A0FFF78A
:1038F000A3FEC8F800000028ADD10D4B013C1870A4
:10390000E8D101234FF0FF302B7003B0BDE8F08FFA
:1039100000234FF0FF3089F8003003B0BDE8F08F8E
:103920002C2FFF1F3C2FFF1F362FFF1F21480100A8
:10393000372FFF1F382FFF1F00B583B002AB0121C7
:1039400003F8010D1846FFF773FF03B05DF804FBA1
:1039500038B50E4D0E4C28680123237028B14088DD
:1039600000232370C0F1400038BD0A4B1B7813B907
:103970000020207038BD0320FEF7E2FF0728F7D8AB
:10398000FFF75AFE28600028E9D1F1E7382FFF1F22
:10399000372FFF1F2C2FFF1FF8B5114B1B788BB152
:1039A000104E114D346801272F7064B10F4A63889F
:1039B00000271770214623800320FFF71DF837608A
:1039C00000232B70F8BDFFF737FE084B28B10146E6
:1039D00003201C70FFF710F8F2E71F70F0E700BF3C
:1039E0002C2FFF1F382FFF1F372FFF1F362FFF1FD2
:1039F00038B50E4B1B7873B90D4C216861B103F0DB
:103A0000FF054B880B800320FEF7F6FF256038BDCD
:103A1000084B01221A7038BDFFF70EFE0028F7D0C0
:103A20000146BDE838400320FEF7E6BF372FFF1FF1
:103A3000382FFF1F362FFF1FB1F5607FF0B428BF6E
:103A40004FF4607172B6134A134C144B106000228D
:103A5000228003F1700443F8042FA342FBD1B1B1DB
:103A60000F4E002301275D0903F01F0456F825209F
:103A700007FA04F4013322438B4246F82520F2D1A1
:103A80000023438001338B4200F58270F9D162B686
:103A9000F0BC7047502FFF1FCA2FFF1F542FFF1F6E
:103AA000582FFF1FF0B472B6234F244E3C8806F106
:103AB000700306EB8400984212D256F8241099B98C
:103AC000021D06F17305631CAD1A03EB950503E0B7
:103AD00052F8041B41B90133AB421C461046F7D1E2
:103AE00062B60020F0BC7047B1FA81F34FF000429B
:103AF000DA4021EA0201016001B9013410493C8039
:103B00000A88013294B20C8062B6801B8010C3EB2D
:103B1000401000EB801083000A480B49006803F551
:103B2000FB531C330125C5540D88AA42184488BF95
:103B30000C80F0BC704700BFCA2FFF1F582FFF1F1B
:103B4000CC2FFF1F502FFF1F4C2FFF1F428872B634
:103B50000378012B03D9013B037062B67047531100
:103B600070B40C4C0C4D54F823102E88D2434FF0F7
:103B7000004002F01F0220FA02F21143074A44F803
:103B80002310B34238BF2B801388013B138062B6E9
:103B900070BC7047582FFF1FCA2FFF1FCC2FFF1F6D
:103BA000C368B3B130B401E0DB688BB1187A9042DE
:103BB000FAD158685C7A006950F82450002DF3D18E
:103BC00040F82410087801300870DB68002BEDD134
:103BD00030BC7047437A8B4206D90369002253F800
:103BE000210043F82120704700207047037C23BB4D
:103BF0004368427A5B7A9A421FD830B472B604683E
:103C0000E3682BB3DA6832B119688C4216D01346D8
:103C1000DA68002AF8D1D8600023C360A37A0133A0
:103C2000A37202684168012313728A7A1A448A7265
:103C300042681372037462B630BC70475D684168B5
:103C40008D42E4D1198903899942F4D01346DFE704
:103C5000E060E1E7037C4BB34368427A5B7A9A42C7
:103C600024D872B60268D36803B3984202D11EE02A
:103C7000984202D0DB68002BFAD14368427A1B6974
:103C8000002143F822100268937A013B9372036883
:103C90009A7A02B91A724268937A013B9372436826
:103CA0009A7A02B91A720023037462B67047C36825
:103CB000D360E2E7084B1A785AB90848084910B4AB
:103CC000D0240470012210460A601A705DF8044B7B
:103CD00070470020704700BF542FFF1F40E400E0F2
:103CE00008E100E01A491B4A1B48F8B50B681B4D58
:103CF000046843F080730B60136843F001031360A2
:103D00002E6814B915E064699CB1237A002BFAD0AF
:103D100023682F681B68204698472B68E188DB1BC7
:103D20001B099AB28B42A28088BFE2806469002C92
:103D3000EBD10A4B0A4A1B6810880A4C9B1B1B09D3
:103D400099B28342218001D91180F8BDF8BD00BF2E
:103D5000FCED00E0001000E0482FFF1F041000E021
:103D6000C82FFF1FCE2FFF1FF0B572B699B902689A
:103D70008AB103790F2B0ED8284C218841FA03F51C
:103D8000ED070AD503F1007303F59063B2EB431F0F
:103D900003D162B6F0BD214C2188002341FA03F221
:103DA00012F0010207D00133102BF7D162B60022C6
:103DB00003710260F0BD01259D402943218062B658
:103DC000174E184D184FDFF868E0D9B2017134680A
:103DD00044F0020434602C6844F002042C60A6F520
:103DE000802640F28244A5F5802503F100733C60F3
:103DF00003F59063223E243D0C4C8EF800105B01CD
:103E000031702970217003601A605A609A60DA601C
:103E10001A615A619A61DA61F0BD00BFD02FFF1FAD
:103E2000408004403C800440008000401F800040EF
:103E30001A80004003790F2B12D80A4A10B413706D
:103E400072B6094904790A880123A34022EA0303D0
:103E50000B8062B6102200235DF8044B02710360F0
:103E6000704700BF1A800040D02FFF1F10B4EFF33F
:103E7000108272B6437F33B9017F012908D003292C
:103E800010D00123437702B962B65DF8044B704746
:103E9000114C2168A1B1114943610B68836108602D
:103EA0005861EEE70E4C216881B10E4943610B6801
:103EB0008361086058610C4B4FF080511960E0E756
:103EC000064B4161816120601860DAE7054B416172
:103ED000816120601860EEE7E42FFF1FE02FFF1FD5
:103EE000D42FFF1FD82FFF1F04ED00E070B5EFF3B4
:103EF000108272B60C4C206880B10C4E00254369CC
:103F0000236073B19D6102B962B6457783689847B3
:103F1000EFF3108272B620680028F0D102B962B6C1
:103F200070BD3360EFE700BFD42FFF1FD82FFF1FF6
:103F3000FFF7DCBF184A30B41468002C27D00368A0
:103F400021688B420ED2CB1A00218460C1602360AD
:103F5000E06010600223037530BC704711688B422B
:103F6000144608D3A2685B1A0360002AF6D1826067
:103F7000C460A060EEE7D268C2608460E060C5689B
:103F8000CB1A0222A8602360027530BC704784609F
:103F9000C4601060DEE700BFDC2FFF1FF8B5224EC3
:103FA00034682CB32368002B3AD1204F1D4604E01F
:103FB0003468ECB12368002B32D1A36803B1DD6013
:103FC00020693360036825751B68BB4221D1037FDC
:103FD0004560022BC46020D0FFF748FF6368002BC8
:103FE000E6D023602046FFF7A5FF3468002CE1D11E
:103FF000EFF3108372B60E4A00211068116003B906
:1040000062B628B18468FFF795FF20460028F9D1F1
:10401000F8BD224600219847E0E783689847DDE72E
:10402000013B2360E4E700BFDC2FFF1F990F000076
:10403000EC2FFF1F024A136801331360FFF7AEBF76
:10404000282EFF1FF8B572B106460F46144600250C
:10405000336817F8011B1B6830469847013C05443C
:10406000F6D12846F8BD1546FBE700BF10B503683A
:1040700014465B689847204610BD00BF0EB400B5DB
:1040800082B003AA52F8041B019202F08DFA02B02A
:104090005DF804EB03B0704708B5FCF74DFAFCF788
:1040A00089FA00F045FAFAE700EB83039842F0B58D
:1040B0000AD32DE050F8044B21F8024B83424FEA1B
:1040C000144422F8024B23D98C07F3D4A3F1080E31
:1040D000704512D250F8087B50F8046C340C24045C
:1040E000BDB244EA174445EA0645704541F8045B11
:1040F00042F8044BEED383420FD950F8044B21F819
:10410000024B83424FEA144422F8024BF5D8F0BD2B
:10411000A3F1080E7045DDD3F0BDF0BDF8B506463D
:1041200072B61B4B1B4F1C481C491A8804683D681B
:10413000002303603B6008780B7062B698B1184F9B
:1041400018483968DFF860E0C2F1400380FB0302E1
:10415000A2EBE3721144642202FB03F303EB11238D
:104160003960CEF800303DB1304600222946FFF7D5
:1041700017FD2846FFF7EAFC4CB1304621460122E4
:10418000FFF70EFD2046BDE8F840FFF7DFBCF8BDA5
:104190001C30FF1F1030FF1FF82FFF1F0C30FF1FB8
:1041A000581FFF1F56555555D013FF1F0B4B0C4979
:1041B0001B680C480C4AF0B5DFF840E00B4F0C4E82
:1041C0000C4D0D4C1B0ACEF8003000230B703B80C9
:1041D00033602B60236003601370F0BD581FFF1F16
:1041E0000C30FF1FF82FFF1F0430FF1F1C30FF1F74
:1041F0000830FF1FF02FFF1F1030FF1FD013FF1FCD
:10420000514B2DE9F04FB3F80080DFF850B14F4B20
:10421000DBF8004001221A704D4B83B08608C2467D
:104220001D68002C4ED0002D55D0002E5CD0C8F15A
:104230008007BE42C0F08380464B0193DFF82081A7
:10424000DFF814910FBBD8F80030002B37D1D9F824
:1042500000204B46002A32D1C8F800401D60FFF70D
:1042600021FC0446002845D0FFF71CFC0546002829
:1042700049D0374BCBF800401860002E33D07F2E4A
:104280004FF0000A4FF0800749D94FEA4A032A1D30
:10429000211D1A44194401983B46FFF705FF019A76
:1042A000D8F8003002EB8702F61B019223B9D9F847
:1042B0000020294B002ACFD0234B57441F8003B046
:1042C000BDE8F08FFFF7EEFB04460028F7D0CBF8EF
:1042D0000000002DA9D1FFF7E5FB05460028EED030
:1042E0001B4B1860A1E7B046174BA3F8008003B042
:1042F000BDE8F08F164BCBF800001860124B188009
:1043000003B0BDE8F08F2046FFF720FC104BCBF840
:1043100000501D600C4B1D8003B0BDE8F08FD046EF
:1043200053462A1D211D1A44194401983346FFF7AC
:10433000BBFE054B46441E8003B0BDE8F08F054A26
:1043400001924FEA4803ECE71C30FF1F0C30FF1FBF
:10435000F02FFF1FD413FF1FF82FFF1F0830FF1F80
:104360001030FF1F354A2DE9F04F13680133082B39
:1043700083B051D81360B02301934FF02C0A304919
:10438000DFF8D0B04FF000080868C8EB0A03002837
:1043900049D0BBF800E02B4AD2F80090CEF1800261
:1043A000934228BF1346051D4FEA4E0209F1040748
:1043B000154417444FEA88066BB1234A043E16445D
:1043C0001C4637F902CB35F8022B013C42EA0C427D
:1043D00046F8042FF5D19E44BEF17F0F984407D8CC
:1043E000ABF800E0C245CFD8019803B0BDE8F08F2C
:1043F0000091FFF7ABFB4846FFF7A8FB1348009975
:104400000368134A0B60002314680360ABF80030A4
:1044100013600C4B1C60E5E700231360B423019389
:104420004FF02D0AABE7084C01469A0004EB480018
:1044300001F0C6FD019803B0BDE8F08F681FFF1FB3
:10444000FC2FFF1F1430FF1F8814FF1F1830FF1FA1
:104450000030FF1FF42FFF1F0378A12B01D0002095
:104460007047C378012B12D0022BF8D14378812BEF
:1044700018D0822B1DD0832B0FD0842BEFD101209D
:10448000002308704B7002231360012070470B4813
:1044900040680870184613607047FF200F230870AB
:1044A0004B70F0E7054B986808709B681B124B70C7
:1044B000E9E700230B704B70E5E700BF5C1FFF1FAF
:1044C0000378212B01D000207047C3784078012B5E
:1044D0000ED0022BF7D10128F5D110B40B784C780F
:1044E000074A03EB0423936010605DF8044B7047A8
:1044F0000128E8D1024B0A7883E80500704700BF25
:104500005C1FFF1FFFF778B9FFF700B9FFF7DAB8B4
:10451000FFF714B9FFF740BAFFF71ABA0846114679
:10452000FFF786B90846FFF707BA00BF704700BF1C
:1045300038B52C4C237803B138BD01232370FFF725
:10454000FDF8002842D100F07BF800283BD100F0B4
:104550000DF9002834D100F09FF970BB00F018FA73
:1045600040BB00F091FA10BB00F00AFBE0B9002359
:104570002370EFF30583002BDED1EFF3108172B6C9
:10458000194B186828B3194C227812BB45691D6075
:10459000012323700DB3AA6101B962B600254577E6
:1045A000836898472570C7E700F0B8FBDFE700F0A5
:1045B000B3FBD9E700F0AEFBD3E700F0A9FBCDE7F2
:1045C00000F0A4FBC7E700F09FFBC0E7FFF7AEFFDA
:1045D000B9E70029B0D162B638BD054B1D6000298E
:1045E000DCD1DAE71E30FF1FE42FFF1FE82FFF1F8B
:1045F000E02FFF1FF0B44D1E2E46002400E00134D2
:10460000B0FBF2F302FB1300092800F130078ABF68
:104610003730F8B2C0B206F8010F1846002BEED1C1
:104620000A1953704CB1107815F8016F28700133D6
:10463000E01A834202F80169F5DB0846F0BC7047D6
:10464000054A064B10781B78C0B2DBB2984238BFDF
:104650004030C01A704700BF2430FF1F2530FF1FB5
:10466000F0B4384B1A7912F0300F2CD072B6997D15
:1046700001F0FF0200293DD062B6334F334938784C
:104680000D78334E1C46C0B2EDB2431C402BE1798D
:1046900028BF0023AB4202F1FF32C9B21CBFF15464
:1046A000184612F0FF02F0D12A4B1B68C2B23A70D2
:1046B0004BB1A84236BFC5F14005401B4019272821
:1046C000C4BF01221A701F49CA78D2B2150616D487
:1046D00052060DD51B4B1B795B0609D51E4B1F4996
:1046E0001B6800220A7003B11A70164B3C22DA7064
:1046F000F0BC70474022D9795A7462B6E3E70B796F
:104700001C06E5D5164B174E1C783378E4B2DBB2A5
:104710009C420ED0144D01E0A3420AD00133402B3D
:1047200028BF00230879E85CC0B2C871087D07285B
:10473000F2D9DBB2034933700B79180644BF7C23EE
:10474000CB70C5E700A006402430FF1F2530FF1FB7
:104750006830FF1F2030FF1FAC30FF1FA830FF1F45
:10476000B030FF1FA930FF1F2830FF1F054A064B3E
:1047700010781B78C0B2DBB2984238BF4030C01A04
:10478000704700BF2431FF1FB930FF1FF0B4384B12
:104790001A7912F0300F2CD072B6997D01F0FF0219
:1047A00000293DD062B6334F334938780D78334E07
:1047B0001C46C0B2EDB2431C402BE17928BF002358
:1047C000AB4202F1FF32C9B21CBFF154184612F0DD
:1047D000FF02F0D12A4B1B68C2B23A704BB1A8421B
:1047E00036BFC5F14005401B40192728C4BF012230
:1047F0001A701F49CA78D2B2150616D452060DD5C2
:104800001B4B1B795B0609D51E4B1F491B680022F9
:104810000A7003B11A70164B3C22DA70F0BC704774
:104820004022D9795A7462B6E3E70B791C06E5D5C4
:10483000164B174E1C783378E4B2DBB29C420ED094
:10484000144D01E0A3420AD00133282B28BF0023D6
:104850000879E85CC0B2C871087D0728F2D9DBB2DC
:10486000034933700B79180644BF7C23CB70C5E72E
:1048700000B006402431FF1FB930FF1FE430FF1F96
:10488000B430FF1F2831FF1FB830FF1F2C31FF1F2E
:104890002531FF1FBC30FF1F054A064B10781B78DF
:1048A000C0B2DBB2984238BF4030C01A704700BF78
:1048B0003431FF1F3531FF1F30B42B4B1A7994066A
:1048C0001FD52A48DA790378294901333F2B097823
:1048D000C8BF00238B42D2B203D0264CD9B2E254D7
:1048E0000170254A116861B1244A1278D2B293420C
:1048F00036BFC2F140029B1A9B18272BC4BF01236D
:104900000B70194AD378DBB2180611D45A060DD5AC
:10491000154B1B795B0609D5194B1A491B680022F8
:104920000A7003B11A70104B2C22DA7030BC704739
:1049300011790906EAD5144910480C780178C9B2F2
:104940008C420DD04A1C272A84BF00210A460F4DF5
:10495000054C98BFD1B2AA5CD2B2E2710170D5E722
:104960006C21D170D2E700BF00C006403431FF1F78
:104970003531FF1F6031FF1F3031FF1FA131FF1F95
:10498000A431FF1FA031FF1FA831FF1F3831FF1FC7
:10499000054A064B10781B78C0B2DBB2984238BF8C
:1049A0004030C01A704700BFB031FF1FB131FF1F48
:1049B00030B42B4B1A7994061FD52A48DA7903783C
:1049C000294901333F2B0978C8BF00238B42D2B25B
:1049D00003D0264CD9B2E2540170254A116861B166
:1049E000244A1278D2B2934236BFC2F140029B1AD7
:1049F0009B18272BC4BF01230B70194AD378DBB255
:104A0000180611D45A060DD5154B1B795B0609D52E
:104A1000194B1A491B6800220A7003B11A70104B17
:104A20002C22DA7030BC704711790906EAD5144996
:104A300010480C780178C9B28C420DD04A1C272A44
:104A400084BF00210A460F4D054C98BFD1B2AA5C25
:104A5000D2B2E2710170D5E76C21D170D2E700BF0C
:104A600000D00640B031FF1FB131FF1FDC31FF1F06
:104A7000AC31FF1F1D32FF1F2032FF1F1C32FF1FF2
:104A80002432FF1FB431FF1F054A064B10781B78F4
:104A9000C0B2DBB2984238BF4030C01A704700BF86
:104AA0002C32FF1F2D32FF1F30B42B4B1A79940686
:104AB0001FD52A48DA790378294901333F2B097831
:104AC000C8BF00238B42D2B203D0264CD9B2E254E5
:104AD0000170254A116861B1244A1278D2B293421A
:104AE00036BFC2F140029B1A9B18272BC4BF01237B
:104AF0000B70194AD378DBB2180611D45A060DD5BB
:104B0000154B1B795B0609D5194B1A491B68002206
:104B10000A7003B11A70104B2C22DA7030BC704747
:104B200011790906EAD5144910480C780178C9B200
:104B30008C420DD04A1C272A84BF00210A460F4D03
:104B4000054C98BFD1B2AA5CD2B2E2710170D5E730
:104B50006C21D170D2E700BF00A00E402C32FF1FA5
:104B60002D32FF1F5832FF1F2832FF1F9932FF1FBF
:104B70009C32FF1F9832FF1FA032FF1F3032FF1FF1
:104B8000054A064B10781B78C0B2DBB2984238BF9A
:104B90004030C01A704700BFA832FF1FA932FF1F64
:104BA00030B42C4B5A6894021FD52B48DA6803782E
:104BB0002A4901333F2B0978C8BF00238B4204D018
:104BC000274CD2B2D9B2E2540170264A116861B1C1
:104BD000254A1278D2B2934236BFC2F140029B1AE4
:104BE0009B18272BC4BF01230B701A4A9368180225
:104BF00002D55268110211D45A020DD5154B5B68CB
:104C00005B0209D5194B1A491B6800220A7003B1CF
:104C10001A70184B00221A6030BC7047164A1249AD
:104C200010780A78D2B290420DD00132272A84BF80
:104C300000200246114D074C98BFD0B2AA5CD2B2F8
:104C4000E2600870D8E70E480A4A00240121046097
:104C50001160D1E700400C40A832FF1FA932FF1FAE
:104C6000D432FF1FA432FF1F1533FF1F1833FF1F5D
:104C70001433FF1F580188431C33FF1FAC32FF1F42
:104C80005C01884310B584B072B6FDF771FC184A18
:104C9000184B19491160702280211A701A46197038
:104CA00013781B06FCD5154B1C68FDF77BFC62B620
:104CB000134B9C429CBF04EB840464002046114CBF
:104CC00001A90A22FFF796FC01A92046002311F84A
:104CD000012B01333AB10A2B20F8022FF7D116230A
:104CE000237004B010BD5B00DBB2237004B010BDB4
:104CF0000400024000000240000007410C00024096
:104D00007F969800B820FF1F704700BF704700BF14
:104D1000704700BF704700BF704700BF704700BFBB
:104D200081F0004102E000BF83F0004330B54FEA5C
:104D300041044FEA430594EA050F08BF90EA020FC9
:104D40001FBF54EA000C55EA020C7FEA645C7FEA5C
:104D5000655C00F0E2804FEA5454D4EB5555B8BF7F
:104D60006D420CDD2C4480EA020281EA030382EAF0
:104D7000000083EA010180EA020281EA0303362D82
:104D800088BF30BD11F0004F4FEA01314FF4801C55
:104D90004CEA113102D0404261EB410113F0004F67
:104DA0004FEA03334CEA133302D0524263EB43031E
:104DB00094EA050F00F0A780A4F10104D5F1200EBC
:104DC0000DDB02FA0EFC22FA05F2801841F1000117
:104DD00003FA0EF2801843FA05F359410EE0A5F1EB
:104DE00020050EF1200E012A03FA0EFC28BF4CF01C
:104DF000020C43FA05F3C01851EBE37101F00045D2
:104E000007D54FF0000EDCF1000C7EEB00006EEBDE
:104E10000101B1F5801F1BD3B1F5001F0CD3490868
:104E20005FEA30004FEA3C0C04F101044FEA4452BF
:104E300012F5800F80F09A80BCF1004F08BF5FEA46
:104E4000500C50F1000041EB045141EA050130BD26
:104E50005FEA4C0C404141EB010111F4801FA4F1C9
:104E60000104E9D191F0000F04BF01460020B1FA1E
:104E700081F308BF2033A3F10B03B3F120020CDA56
:104E80000C3208DD02F1140CC2F10C0201FA0CF034
:104E900021FA02F10CE002F11402D8BFC2F1200C99
:104EA00001FA02F120FA0CFCDCBF41EA0C0190404F
:104EB000E41AA2BF01EB0451294330BD6FEA040498
:104EC0001F3C1CDA0C340EDC04F11404C4F1200283
:104ED00020FA04F001FA02F340EA030021FA04F395
:104EE00045EA030130BDC4F10C04C4F1200220FAEC
:104EF00002F001FA04F340EA0300294630BD21FA2A
:104F000004F0294630BD94F0000F83F4801306BFEF
:104F100081F480110134013D4EE77FEA645C18BFE3
:104F20007FEA655C29D094EA050F08BF90EA020F7A
:104F300005D054EA000C04BF1946104630BD91EA72
:104F4000030F1EBF0021002030BD5FEA545C05D175
:104F50004000494128BF41F0004130BD14F58004B4
:104F60003CBF01F5801130BD01F0004545F0FE4128
:104F700041F470014FF0000030BD7FEA645C1ABF5D
:104F8000194610467FEA655C1CBF0B46024650EA94
:104F9000013406BF52EA033591EA030F41F40021C0
:104FA00030BD00BF90F0000F04BF0021704730B546
:104FB0004FF4806404F132044FF000054FF000011B
:104FC00050E700BF90F0000F04BF0021704730B5DC
:104FD0004FF4806404F1320410F0004548BF4042B1
:104FE0004FF000013EE700BF42004FEAE2014FEA06
:104FF00031014FEA02701FBF12F07F4393F07F4FE1
:1050000081F06051704792F0000F14BF93F07F4F12
:10501000704730B54FF4607401F0004521F0004155
:1050200020E700BF50EA010208BF704730B54FF0DB
:1050300000050AE050EA010208BF704730B511F0E0
:10504000004502D5404261EB41014FF4806404F118
:1050500032045FEA915C3FF4DCAE4FF003025FEA9A
:10506000DC0C18BF03325FEADC0C18BF033202EB22
:10507000DC02C2F1200300FA03FC20FA02F001FA7C
:1050800003FE40EA0E0021FA02F11444C1E600BF1B
:1050900070B54FF0FF0C4CF4E06C1CEA11541DBFCE
:1050A0001CEA135594EA0C0F95EA0C0F00F0DEF899
:1050B0002C4481EA030621EA4C5123EA4C5350EA7E
:1050C000013518BF52EA033541F4801143F48013CF
:1050D00038D0A0FB02CE4FF00005E1FB02E506F060
:1050E0000042E0FB03E54FF00006E1FB03569CF0B5
:1050F000000F18BF4EF0010EA4F1FF04B6F5007FBB
:1051000064F5407404D25FEA4E0E6D4146EB06062C
:1051100042EAC62141EA55514FEAC52040EA5E50B5
:105120004FEACE2EB4F1FD0C88BFBCF5E06F1ED85F
:10513000BEF1004F08BF5FEA500E50F1000041EB96
:10514000045170BD06F0004646EA010140EA020043
:1051500081EA0301B4EB5C04C2BFD4EB0C0541EA65
:10516000045170BD41F480114FF0000E013C00F37A
:10517000AB8014F1360FDEBF002001F0004170BD9E
:10518000C4F10004203C35DA0C341BDC04F11404B7
:10519000C4F1200500FA05F320FA04F001FA05F243
:1051A00040EA020001F0004221F0004110EBD37010
:1051B00021FA04F642EB06015EEA430E08BF20EA3C
:1051C000D37070BDC4F10C04C4F1200500FA04F3DF
:1051D00020FA05F001FA04F240EA020001F0004171
:1051E00010EBD37041F100015EEA430E08BF20EAE4
:1051F000D37070BDC4F1200500FA05F24EEA020E2C
:1052000020FA04F301FA05F243EA020321FA04F05A
:1052100001F0004121FA04F220EA020000EBD37011
:105220005EEA430E08BF20EAD37070BD94F0000F11
:105230000FD101F00046400041EB010111F4801F45
:1052400008BF013CF7D041EA060195F0000F18BFF6
:10525000704703F00046520043EB030313F4801F32
:1052600008BF013DF7D043EA0603704794EA0C0FEC
:105270000CEA135518BF95EA0C0F0CD050EA410602
:1052800018BF52EA4306D1D181EA030101F000417F
:105290004FF0000070BD50EA410606BF10461946A7
:1052A00052EA430619D094EA0C0F02D150EA0136B3
:1052B00013D195EA0C0F05D152EA03361CBF1046F4
:1052C00019460AD181EA030101F0004141F0FE4193
:1052D00041F470014FF0000070BD41F0FE4141F417
:1052E000780170BD70B54FF0FF0C4CF4E06C1CEA17
:1052F00011541DBF1CEA135594EA0C0F95EA0C0FCC
:1053000000F0A7F8A4EB050481EA030E52EA033586
:105310004FEA013100F088804FEA03334FF08055A7
:1053200045EA131343EA12634FEA022245EA1115D4
:1053300045EA10654FEA00260EF000419D4208BF85
:10534000964244F1FD0404F5407402D25B084FEA32
:105350003202B61A65EB03055B084FEA32024FF4DE
:1053600080104FF4002CB6EB020E75EB030E22BF3B
:10537000B61A754640EA0C005B084FEA3202B6EBFB
:10538000020E75EB030E22BFB61A754640EA5C00AA
:105390005B084FEA3202B6EB020E75EB030E22BF3A
:1053A000B61A754640EA9C005B084FEA3202B6EB3B
:1053B000020E75EB030E22BFB61A754640EADC00FA
:1053C00055EA060E18D04FEA051545EA16754FEA5C
:1053D00006164FEAC30343EA52734FEAC2025FEA7A
:1053E0001C1CC0D111F4801F0BD141EA00014FF009
:1053F00000004FF0004CB6E711F4801F04BF0143DA
:105400000020B4F1FD0C88BFBCF5E06F3FF6AFAEF5
:10541000B5EB030C04BFB6EB020C5FEA500C50F185
:10542000000041EB045170BD0EF0004E4EEA113108
:1054300014EB5C04C2BFD4EB0C0541EA045170BD0F
:1054400041F480114FF0000E013C90E645EA060E53
:105450008DE60CEA135594EA0C0F08BF95EA0C0F81
:105460003FF43BAF94EA0C0F0AD150EA01347FF4C9
:1054700034AF95EA0C0F7FF425AF104619462CE7A0
:1054800095EA0C0F06D152EA03353FF4FDAE104603
:10549000194622E750EA410618BF52EA43067FF454
:1054A000C5AE50EA41047FF40DAF52EA43057FF4E4
:1054B000EBAE12E74FF0FF3C06E000BF4FF0010CEF
:1054C00002E000BF4FF0010C4DF804CD4FEA410C53
:1054D0007FEA6C5C4FEA430C18BF7FEA6C5C1BD020
:1054E00001B050EA410C0CBF52EA430C91EA030FA1
:1054F00002BF90EA020F0020704710F1000F91EAFE
:10550000030F58BF994208BF90422CBFD8176FEACB
:10551000E37040F0010070474FEA410C7FEA6C5C99
:1055200002D150EA013C07D14FEA430C7FEA6C5CA0
:10553000D6D152EA033CD3D05DF8040B704700BFCC
:105540008446104662468C461946634600E000BF1A
:1055500001B5FFF7B7FF002848BF10F1000F01BDEC
:105560004DF808EDFFF7F4FF0CBF012000205DF8B7
:1055700008FB00BF4DF808EDFFF7EAFF34BF01203C
:1055800000205DF808FB00BF4DF808EDFFF7E0FFD5
:1055900094BF012000205DF808FB00BF4DF808ED26
:1055A000FFF7CEFF94BF012000205DF808FB00BF8D
:1055B0004DF808EDFFF7C4FF34BF012000205DF86F
:1055C00008FB00BF4FEA410C7FEA6C5C02D150EA55
:1055D000013C0AD14FEA430C7FEA6C5C02D152EAEB
:1055E000033C02D14FF0000070474FF001007047BC
:1055F0002DE9F0478C460E460446089D002B50D1FD
:105600008A4217466CD9B2FA82FEBEF1000F0BD067
:10561000CEF1200420FA04F401FA0EF644EA060C56
:1056200002FA0EF700FA0EF44FEA1749220CBCFBFF
:10563000F9F01FFA87F809FB10C642EA064600FB9C
:1056400008F3B34209D9F61900F1FF3280F0228144
:10565000B34240F21F8102383E44F61AA2B2B6FBB2
:10566000F9F309FB136642EA064403FB08F8A04578
:1056700009D9E41903F1FF3280F00A81A04540F214
:105680000781023B3C44C8EB040443EA004000218C
:10569000002D62D024FA0EF400232C606B60BDE86C
:1056A000F0878B4207D9002D55D0002185E84100B5
:1056B0000846BDE8F087B3FA83F1002940F09080F6
:1056C000B34202D3824200F2F880841A66EB0306EA
:1056D0000120B446002D40D085E81010BDE8F087C9
:1056E00012B90127B7FBF2F7B7FA87FEBEF1000F38
:1056F00035D1F31B4FEA17481FFA87FC0121B3FB92
:10570000F8F0220C08FB103642EA06460CFB00F3C8
:10571000B34207D9F61900F1FF3202D2B34200F2C8
:10572000CE801046F61AA2B2B6FBF8F308FB136659
:1057300042EA06440CFB03FCA44507D9E41903F133
:10574000FF3202D2A44500F2B5801346CCEB04042C
:1057500043EA00409CE729462846BDE8F087CEF1A1
:10576000200106FA0EF307FA0EF720FA01F94FEAC4
:105770001748CE4049EA0309B6FBF8FA4FEA194444
:1057800008FB1A661FFA87FC44EA06430AFB0CF280
:105790009A4200FA0EF40AD9DB190AF1FF3180F0BF
:1057A00087809A4240F28480AAF1020A3B449B1A05
:1057B0001FFA89F9B3FBF8F108FB113349EA0343F7
:1057C00001FB0CF69E4207D9DB1901F1FF326BD2C7
:1057D0009E4269D902393B449B1B41EA0A418EE74C
:1057E000C1F1200E22FA0EF48B40234320FA0EF76B
:1057F00006FA01F44FEA134C26FA0EF63C43B6FBC8
:10580000FCF9270C0CFB19661FFA83F847EA0646D9
:1058100009FB08F7B74202FA01F200FA01FA08D9C7
:10582000F61809F1FF3041D2B7423FD9A9F1020978
:105830001E44F61BA0B2B6FBFCF40CFB146640EA57
:10584000064704FB08F8B84507D9FF1804F1FF30F4
:1058500028D2B84526D9023C1F4444EA0940C8EB87
:105860000707A0FB02894F4544464E4614D329D072
:1058700065B3BAEB040367EB060707FA0EFECB40ED
:10588000CF404EEA030385E888000021BDE8F08799
:105890001346F8E61046E0E6B8EB020469EB0306AF
:1058A0000138E5E70446D8E7114695E78146C0E7A9
:1058B0008A467CE7023B3C4448E708460AE7023850
:1058C0003E442FE7C245E7D33E46D1E72946BDE82F
:1058D000F08700BF704700BF0B460146184600F036
:1058E00001B800BF13460A460146022000F08CBEF4
:1058F000014B1868704700BFF824FF1F70B50F4EAA
:105900000F4D761BB61018BF002405D0013455F892
:10591000043B9847A642F9D10A4E0B4D761B04F082
:105920002FFBB61018BF002406D0013455F8043BF5
:105930009847A642F9D170BD70BD00BF8C9F000092
:105940008C9F0000D89F00008C9F0000024B0146F6
:10595000186800F003B800BFF824FF1F2DE9F04FCE
:1059600001F10B05162D83B0064640F29F8035F0FD
:10597000070500F1BF80A94200F2BC8000F06EFB79
:10598000B5F5FC7FC0F09C826B0A00F0BA80042B56
:1059900000F28381A80900F1390E4FEA4E03383036
:1059A000C44F07EB8303A3F108015C68A14207D150
:1059B000ACE0002A80F2AC80E468A14200F0A6804E
:1059C000636823F003035A1B0F2AF2DDB9493C69CF
:1059D00001F1080E744500F0B381636823F00303FE
:1059E0005A1B0F2A00F39981002AC1F814E0C1F86C
:1059F00010E080F29E80B3F5007F80F06781DB08C5
:105A000003F1010C01229B1002FA03F34A6851F8DA
:105A10003C80C4F8088001EBCC091A43A9F10803C3
:105A2000E3604A6041F83C40C8F80C408310012410
:105A30009C40944200F28A80144206D120F0030078
:105A40006400144200F10400FAD007EBC009CC4610
:105A50008046DCF80C108C4507D173E1002A80F2F7
:105A60008181C9688C4500F06D814B6823F0030388
:105A70005A1B0F2AF2DD0C46D1F80CC054F8088FDF
:105A80004B1945F001054D6042F00101C8F80CC00A
:105A90003046CCF808807B613B61C3F80CE0C3F86A
:105AA00008E059609A5000F0DBFA1FE0102921D875
:105AB00000F0D4FA1025062302207E4F07EB830363
:105AC000A3F108025C68944200F045816368E168D4
:105AD000A56823F00303234430465A68E96042F086
